:100000000C9434000C9451000C9451000C94510049
:100010000C9451000C9451000C9451000C9451001C
:100020000C9451000C9451000C9451000C9451000C
:100030000C9451000C9451000C9451000C945100FC
:100040000C94C8000C9451000C943A030C94AD032A
:100050000C94EF030C9451000C9451000C9451003B
:100060000C9451000C94510011241FBECFEFD8E026
:10007000DEBFCDBF11E0A0E0B1E0E0E9FCE002C0EE
:1000800005900D92AA3BB107D9F723E0AAEBB1E0A6
:1000900001C01D92AD32B207E1F70E94E3050C9456
:1000A00046060C94000046E650E060E070E08CEB01
:1000B00091E00C941E0680912002909121020197FC
:1000C00061F4109221021092200246E650E060E0B6
:1000D00070E08CEB91E00C942E0608954C990BC0C7
:1000E00086E6E1E2F1E0ACEBB1E001900D928A9599
:1000F000E1F70C945B0008958EE384B98BE187B936
:1001000088EC8AB981E085B984E288B980E38BB94B
:100110000895809114020C94790282E085BD81E0FB
:1001200080936E00ECEBF1E080A522A533A5D90108
:10013000A75EBE4F9C91906A482F4295440F440F92
:10014000407C942B8295807F892B80938000D901FD
:10015000A75FBE4F8C9188608093810084A526A5FF
:1001600037A5F901EF5EFE4F9081906A482F4295C6
:10017000440F440F407C942B8295807F892B809381
:10018000B000F901EF5FFE4F80818093B1000895C8
:100190001F920F920FB60F9211242F933F934F93FC
:1001A0005F936F937F938F939F93AF93BF93EF93DF
:1001B000FF930E94F602FF91EF91BF91AF919F9143
:1001C0008F917F916F915F914F913F912F910F9000
:1001D0000FBE0F901F9018952091800021FF0BC03B
:1001E0002091800020FF05C0880F991F880F991F5C
:1001F0000895880F991F0895E82FF0E0EE0FFF1F74
:10020000E454FE4F70E0718360838130F1F030F090
:100210008230C9F1833009F451C00895660F771F09
:10022000FB01EC53FE4F808191810E94EC00909382
:1002300089008093880038B128B18091BC019091E9
:10024000BD018327837099271BC0660F771FFB01B1
:10025000E453FE4F808191810E94EC0090938B00CB
:1002600080938A0038B128B18091BE019091BF017E
:10027000F3E0880F991FFA95E1F783278871992792
:10028000822788B90895660F771FFB01EC52FE4F55
:1002900080818093B300F8943BB12BB18091C00171
:1002A0009091C10166E0880F991F6A95E1F7832755
:1002B000807C992782278BB978940895660F771FE1
:1002C000FB01E452FE4F80818093B40035B125B12B
:1002D0008091C2019091C30144E0880F991F4A9513
:1002E000E1F7832780739927822785B908950F93B3
:1002F0001F93CF930CEB11E0C0E0F80160810E5F1B
:100300001F4F8C2F0E94FC00CF5FC430B1F7CF91FC
:100310001F910F910895E82FF0E0EE0FFF1FE454B6
:10032000FE4F60816F5F63700C94FC0089579E4F95
:10033000FC01208181E090E0022E02C0880F991F0D
:100340000A94E2F76817790730F481E090E0211110
:1003500004C080E0089580E090E00895EF92FF925D
:100360000F931F93CF93DF930E94730283FF69C0A3
:1003700080912E02863099F08031B1F1833009F0FE
:1003800057C043E350E060E070E08CEB91E0DF9118
:10039000CF911F910F91FF90EF900C9480042091CA
:1003A0002F0280913002909131026091320270E010
:1003B000792B90E0922B0E949601892B19F483E00F
:1003C0000E94490443E350E060E070E08CEB91E070
:1003D0000E9480040E947701DF91CF911F910F91BD
:1003E000FF90EF900C945B0080912F02E090300220
:1003F000F12CF82A809131020091320210E0182B82
:10040000C0E0D0E0C017D107E8F6FE01EC5CFD4F7C
:100410008081FE01EB5CFD4F608170E0782BC701AD
:100420008C0F9D1F0E949601892B49F22296EACFDC
:1004300081E0DF91CF911F910F91FF90EF900C948D
:100440004904DF91CF911F910F91FF90EF90089594
:100450008091300220912F0290E0922B9093240201
:100460008093230280912E02863021F080912E020B
:10047000853019F481E090E006C08091320220912D
:10048000310290E0922B90932602809325020895EA
:10049000AC0180912302909124024817590770F013
:1004A000809123029091240220912502309126020E
:1004B000280F391F81E04217530708F080E00895A4
:1004C000CF93DF93EB010E944802982F882339F0E5
:1004D000CE010E94480291E0811101C090E0892F75
:1004E000DF91CF91089580912C020895809122028E
:1004F00008958093220208955A9A08955A9808956B
:100500006F5F40E050E02FEF3FEF70E04617570776
:10051000B4F4FC01E40FF51FE0812E27E8E0D901D7
:10052000A170BB2736952795AB2B21F0F1E02F2743
:10053000F0EA3F27E15099F74F5F5F4FE7CFDC01CB
:10054000A60FB71FEC91F0E06F5F7F4FA901552711
:10055000E417F50751F4FC01E60FF71F408150E066
:10056000E32FFF274E175F0739F02C93FC01E60FAE
:10057000F71F308380E0089581E00895FB01A3E038
:10058000F695E795AA95E1F7E80FF91F808190E0CD
:100590006770772702C0959587956A95E2F7F9010C
:1005A000B3E0F695E795BA95E1F727703327E40FA6
:1005B000F51F308180FF08C081E090E001C0880F06
:1005C0002A95EAF7832B08C081E090E001C0880FEC
:1005D0002A95EAF7809583238083089580E28093AB
:1005E0002C0210922B0210922A02089580912C0264
:1005F00085FF3FC080912A0290912B020196909333
:100600002B0280932A0280912C0281FF27C08091C7
:100610002A0290912B020F9721F480912C02806482
:1006200026C080912A0290912B02899711F5909112
:100630002D028091220298130FC0609128027091C0
:10064000290263508DE292E00E948002882321F00B
:100650000E94280288E00BC00C94EE0280912A02CE
:1006600090912B02849729F480912C0281608093D1
:100670002C0208951F920F920FB60F9211242F9300
:100680003F934F935F936F937F938F939F93AF931A
:10069000BF93EF93FF938091C60010922B021092AC
:1006A0002A0290912C0293FD28C090912C0294FD77
:1006B00024C090912C0292FD20C090912C0291FFB9
:1006C0001CC090912C0290FD18C0209128023091FE
:1006D00029022F3F310521F018F00E94EE022CC0B4
:1006E000E0912802F0912902E35DFD4F8083809123
:1006F00028029091290201961BC090912C0293FD33
:100700001BC090912C0294FD17C090912C0292FD79
:1007100013C090912C0291FD0FC090912C0290FF7C
:100720000BC080932D0282E280932C0281E090E046
:100730009093290280932802FF91EF91BF91AF918E
:100740009F918F917F916F915F914F913F912F91E9
:100750000F900FBE0F901F9018951F920F920FB61B
:100760000F9211242F933F938F939F93EF93FF93B7
:1007700080912C028F7E80932C0280912C028460C9
:1007800080932C02E0912802F0912902E35DFD4F55
:1007900080818093C6008091280290912902019661
:1007A00090932902809328028091000120912802D1
:1007B0003091290290E001968217930729F48091E5
:1007C000C1008F7D8093C100FF91EF919F918F9128
:1007D0003F912F910F900FBE0F901F9018951F9271
:1007E0000F920FB60F9211242F933F934F935F9365
:1007F0006F937F938F939F93AF93BF93EF93FF93E9
:100800000E947E020E94EE02FF91EF91BF91AF9194
:100810009F918F917F916F915F914F913F912F9118
:100820000F900FBE0F901F9018951092C50087E68D
:100830008093C40082E08093C00086E08093C20071
:1008400088ED8093C100529A0E947E0280E28093DC
:100850002C02089592E0980F90930001682F8DE28A
:1008600092E00E94800280912C02806180932C0291
:1008700010922902109228020E947C02E1ECF0E022
:1008800080818062808380912C02877F80932C02FC
:100890000895EDE2F2E0918190689183828382E095
:1008A0000C942A048091250290912602089580914B
:1008B0002302909124020895DC01FB0190E094173B
:1008C00051F02D913C91119730832D913D912183D1
:1008D0009F5F3296F4CF0895FB0150E0541779F0F2
:1008E000DC012C9111966C9130E0322F2227260FDB
:1008F000311D3183208332965F5F0296EFCF0895DA
:100900009B0160912302709124026217730708F41F
:1009100050C0E0912502F09126026091230270916F
:100920002402420F531F6E0F7F1F4617570708F40C
:1009300040C040912E02433021F040912E024430BD
:1009400041F54091250250912602440F551F4C3F1E
:10095000510578F54091250250912602440F4093AD
:100960002F0240912502509126026091230270913E
:100970002402FB01E21BF30B9F01220F331F60E3F4
:1009800072E0820F931F0E945C0480912F028E5FA1
:1009900045C040912E02403169F56091330240918B
:1009A00025025091260270E0440F551F6417750709
:1009B00020F483E00E94490435C0609128027091C0
:1009C0002902409133026950710950E0641775079C
:1009D00080F340912502509126026091230270918C
:1009E0002402621B730B660F771F680F791F84E365
:1009F00092E011C040912E024630A1F46091230292
:100A000070912402621B730B660F771F680F791FAA
:100A100041E081E392E00E946C0485E00E942A0498
:100A200081E0089580E00895EF92FF920F931F9365
:100A3000CF93DF938C01EB018091230290912402EC
:100A40008617970708F476C0209125023091260278
:100A50008091230290912402460F571F820F931F0B
:100A60004817590708F466C080912E02823029F099
:100A700080912E02813009F04CC080912502909126
:100A80002602893D974008F055C08091250290913B
:100A9000260223E0969587952A95E1F780932F0209
:100AA000809125029091260287709927892B91F0D9
:100AB000E0912502F091260283E0F695E7958A956C
:100AC000E1F7FF27E05DFD4F108280912F028F5FDD
:100AD00080932F02E12CF12C809125029091260227
:100AE000E816F90690F460912302709124026C1BC1
:100AF0007D0B6E0D7F1D970140E352E0C8010E94FF
:100B0000BE024FEFE41AF40AE7CF80912F028E5F06
:100B10004EC080912E028F30C1F58091330220911A
:100B200025023091260248E0849FC00111248217DB
:100B3000930720F483E00E9449043DC020912802DD
:100B400030912902809133022950310990E0281711
:100B5000390780F3E12CF12C809125029091260237
:100B6000E816F90618F520912302309124022C1B77
:100B70003D0B2E0D3F1DA801B70184E392E00E94BA
:100B8000BE028FEFE81AF80AE7CF80912E02853077
:100B900091F42091230230912402261B370BA801E7
:100BA00060E070E081E392E00E94BE0285E00E9476
:100BB0002A0481E001C080E0DF91CF911F910F9165
:100BC000FF90EF9008950E947C000E946E000E94AA
:100BD00053000E948D000E94890078940E941504A1
:100BE0009FE088E10FB6F894A895809360000FBE4F
:100BF000909360000E947701A8950E94AE01329BFD
:100C000003C035990CC006C080E00E948B01329B66
:100C1000FECFF7CF81E00E948B01359BFECF4D992F
:100C200005C082E00E948B014D9BFECF1899E4CF56
:100C300083E00E948B01189BFECFDECFDC01CB014D
:100C4000FC01F999FECF06C0F2BDE1BDF89A3196DC
:100C500000B40D9241505040B8F70895DC01CB012B
:100C600003C02D910E94390641505040D0F708959D
:100C7000262FF999FECF1FBA92BD81BD20BD0FB6B8
:100C8000F894FA9AF99A0FBE01960895F894FFCF56
:100C90000700010203040506070001020203030422
:100CA0000500030303030303030001010301020121
:100CB000010000000000000000FF007F003F000076
:100CC00000FF007F003F000000FF007F003F0000AA
:100CD00000FF007F003F000000010004000100044D
:100CE0000057502D4D0031000068430030000000D7
:100CF000006843003100000000684300320000003B
:100D00000068430033000000000100020000000101
:100D1000000000E9030100020202020808080808B6
:100D20000808080808080808080808010301031053
:100D300010101010101010101010101010101010B3
:0A0D4000101010080302010000016A
:00000001FF
