:100000000C9434000C9451000C9451000C94510049
:100010000C9451000C9451000C9451000C9451001C
:100020000C9451000C9451000C9451000C9451000C
:100030000C9451000C9451000C9451000C945100FC
:100040000C948A000C9451000C947E020C94F102E2
:100050000C9433030C9451000C9451000C945100F7
:100060000C9451000C94510011241FBECFEFD8E026
:10007000DEBFCDBF11E0A0E0B1E0E2E1FBE002C0F5
:1000800005900D92A230B107D9F722E0A2E0B1E0CD
:1000900001C01D92A537B207E1F70E9427050C9415
:1000A00087050C94000046E650E060E070E08FE0C9
:1000B00091E00C945F058091730190917401019718
:1000C00061F4109274011092730146E650E060E012
:1000D00070E08FE091E00C946F0508958EE384B991
:1000E0008BE187B988EC8AB981E085B994E298B947
:1000F00090E29BB992E095BD80936E0091EA909357
:10010000800099E09093810093EA9093B0008093EF
:10011000B10008951F920F920FB60F9211242F93E2
:100120003F934F935F936F937F938F939F93AF937F
:10013000BF93EF93FF930E943A02FF91EF91BF911B
:10014000AF919F918F917F916F915F914F913F916F
:100150002F910F900FBE0F901F901895E82FF0E091
:1001600070E0EE0FFF1FE15FFE4F7183608381300F
:10017000E1F030F08230A9F1833009F44EC00895E7
:10018000660F771FFB01E95EFE4F8081918190939E
:1001900089008093880038B180910F0190911001FF
:1001A00028B183278370992719C0660F771FFB0139
:1001B000E15EFE4F8081918190938B0080938A0055
:1001C00038B1809111019091120128B1F3E0880FAC
:1001D000991FFA95E1F7832788719927822788B9B3
:1001E0000895660F771FFB01E95DFE4F80819181C5
:1001F0008093B300F8943BB1809113019091140166
:100200002BB166E0880F991F6A95E1F78327807C00
:10021000992782278BB978940895660F771FFB0181
:10022000E15DFE4F808191818093B40035B1809172
:1002300015019091160125B144E0880F991F4A9548
:10024000E1F7832780739927822785B90895CF9393
:10025000DF93C0E0D0E0FE01EE0FFF1FE15FFE4F35
:10026000608171818C2F0E94AE002196C430D1052F
:1002700091F7DF91CF910895E82FF0E0EE0FFF1F87
:10028000E15FFE4F608171816F5F63700C94AE001F
:100290000E94B70183FF1FC080917601863061F014
:1002A000803151F08330A1F443E350E060E070E02E
:1002B0008FE091E00C94C40343E350E060E070E011
:1002C0008FE091E00E94C4030E9427010C945B0020
:1002D00081E00C948D03089580917801209177013D
:1002E00090E0922B90930601809305018091760116
:1002F000863021F080917601853019F481E090E01C
:1003000006C080917A012091790190E0922B909320
:100310000801809307010895AC0180910501909137
:1003200006014817590770F0809105019091060168
:100330002091070130910801280F391F81E04217F1
:10034000530708F080E00895CF93DF93EB010E94FC
:100350008C01982F882339F0CE010E948C0191E006
:10036000811101C090E0892FDF91CF910895809194
:100370000E01089580910401089580930401089569
:100380005A9A08955A9808956F5F40E050E02FEF11
:100390003FEF70E046175707B4F4FC01E40FF51F78
:1003A000E0812E27E8E0D901A170BB27369527957B
:1003B000AB2B21F0F1E02F27F0EA3F27E15099F72E
:1003C0004F5F5F4FE7CFDC01A60FB71FEC91F0E066
:1003D0006F5F7F4FA9015527E417F50751F4FC0122
:1003E000E60FF71F408150E0E32FFF274E175F070E
:1003F00039F02C93FC01E60FF71F308380E008955D
:1004000081E00895FB01A3E0F695E795AA95E1F751
:10041000E80FF91F808190E06770772702C09595FB
:1004200087956A95E2F7F901B3E0F695E795BA95F5
:10043000E1F727703327E40FF51F308180FF08C0F4
:1004400081E090E001C0880F2A95EAF7832B08C06D
:1004500081E090E001C0880F2A95EAF78095832318
:100460008083089580E280930E0110920D01109216
:100470000C01089580910E0185FF3FC080910C0111
:1004800090910D01019690930D0180930C01809144
:100490000E0181FF27C080910C0190910D010F97F3
:1004A00021F480910E01806426C080910C0190910E
:1004B0000D01899711F590917501809104019813B0
:1004C0000FC060910A0170910B01635085E791E0C4
:1004D0000E94C401882321F00E946C0188E00BC0B7
:1004E0000C94320280910C0190910D01849729F4B3
:1004F00080910E01816080930E0108951F920F92EA
:100500000FB60F9211242F933F934F935F936F93E6
:100510007F938F939F93AF93BF93EF93FF938091BC
:10052000C60010920D0110920C0190910E0193FDE6
:1005300028C090910E0194FD24C090910E0192FD6F
:1005400020C090910E0191FF1CC090910E0190FD72
:1005500018C020910A0130910B012F3F310521F085
:1005600018F00E9432022CC0E0910A01F0910B01B8
:10057000EB58FE4F808380910A0190910B01019608
:100580001BC090910E0193FD1BC090910E0194FD34
:1005900017C090910E0192FD13C090910E0191FD34
:1005A0000FC090910E0190FF0BC08093750182E205
:1005B00080930E0181E090E090930B0180930A01FB
:1005C000FF91EF91BF91AF919F918F917F916F912B
:1005D0005F914F913F912F910F900FBE0F901F9001
:1005E00018951F920F920FB60F9211242F933F93DD
:1005F0008F939F93EF93FF9380910E018F7E809353
:100600000E0180910E01846080930E01E0910A0139
:10061000F0910B01EB58FE4F80818093C6008091D2
:100620000A0190910B01019690930B0180930A01AE
:100630008091000120910A0130910B0190E0019618
:100640008217930729F48091C1008F7D8093C100A8
:10065000FF91EF919F918F913F912F910F900FBE3E
:100660000F901F9018951F920F920FB60F921124A2
:100670002F933F934F935F936F937F938F939F93AA
:10068000AF93BF93EF93FF930E94C2010E94320287
:10069000FF91EF91BF91AF919F918F917F916F915A
:1006A0005F914F913F912F910F900FBE0F901F9030
:1006B00018951092C50087E68093C40082E080936D
:1006C000C00086E08093C20088ED8093C100529AFA
:1006D0000E94C20180E280930E01089592E0980F7B
:1006E00090930001682F85E791E00E94C4018091FA
:1006F0000E01806180930E0110920B0110920A018D
:100700000E94C001E1ECF0E08081806280838091F2
:100710000E01877F80930E010895E5E7F1E0918156
:1007200090689183828382E00C946E03809107012C
:100730009091080108958091050190910601089516
:10074000DC01FB0190E0941751F02D913C91119741
:1007500030832D913D9121839F5F3296F4CF089590
:10076000FB0150E0541779F0DC012C9111966C914B
:1007700030E0322F2227260F311D3183208332961D
:100780005F5F0296EFCF08959B0160910501709124
:1007900006016217730708F450C0E0910701F09159
:1007A00008016091050170910601420F531F6E0F01
:1007B0007F1F4617570708F440C040917601433029
:1007C00021F040917601443041F54091070150916C
:1007D0000801440F551F4C3F510578F54091070122
:1007E00050910801440F40937701409107015091C7
:1007F00008016091050170910601FB01E21BF30BFA
:100800009F01220F331F68E771E0820F931F0E9440
:10081000A003809177018E5F45C040917601403101
:1008200069F560917B01409107015091080170E0EA
:10083000440F551F6417750720F483E00E948D0351
:1008400035C060910A0170910B0140917B016950A4
:10085000710950E06417750780F3409107015091CA
:1008600008016091050170910601621B730B660F10
:10087000771F680F791F8CE791E011C040917601D6
:100880004630A1F46091050170910601621B730B63
:10089000660F771F680F791F41E089E791E00E949A
:1008A000B00385E00E946E0381E0089580E0089522
:1008B000EF92FF920F931F93CF93DF938C01EB0185
:1008C00080910501909106018617970708F476C07C
:1008D0002091070130910801809105019091060156
:1008E000460F571F820F931F4817590708F466C019
:1008F00080917601823029F080917601813009F073
:100900004CC08091070190910801893D974008F003
:1009100055C0809107019091080123E09695879535
:100920002A95E1F780937701809107019091080162
:1009300087709927892B91F0E0910701F0910801C8
:1009400083E0F695E7958A95E1F7FF27E858FE4F93
:100950001082809177018F5F80937701E12CF12CD9
:100960008091070190910801E816F90690F46091D2
:100970000501709106016C1B7D0B6E0D7F1D9701AB
:1009800048E751E0C8010E9402024FEFE41AF40A5E
:10099000E7CF809177018E5F4EC0809176018F30D6
:1009A000C1F580917B01209107013091080148E059
:1009B000849FC00111248217930720F483E00E94D2
:1009C0008D033DC020910A0130910B0180917B0184
:1009D0002950310990E02817390780F3E12CF12CD8
:1009E0008091070190910801E816F90618F5209109
:1009F0000501309106012C1B3D0B2E0D3F1DA8015A
:100A0000B7018CE791E00E9402028FEFE81AF80A22
:100A1000E7CF80917601853091F4209105013091E6
:100A20000601261B370BA80160E070E089E791E022
:100A30000E94020285E00E946E0381E001C080E016
:100A4000DF91CF911F910F91FF90EF9008950E9439
:100A500053000E946E00789481E00E94BD010E94C4
:100A600059039FE088E10FB6F894A8958093600041
:100A70000FBE909360000E942701A8950E94480134
:100A8000329B03C035990CC006C080E00E943C0137
:100A9000329BFECFF7CF81E00E943C01359BFECF19
:100AA0004D9905C082E00E943C014D9BFECF1899F4
:100AB000E4CF83E00E943C01189BFECFDECFDC0137
:100AC000CB01FC01F999FECF06C0F2BDE1BDF89A59
:100AD000319600B40D9241505040B8F70895DC01B2
:100AE000CB0103C02D910E947A0541505040D0F7B0
:100AF0000895262FF999FECF1FBA92BD81BD20BD62
:100B00000FB6F894FA9AF99A0FBE01960895F894E0
:020B1000FFCF15
:020B12000700DA
:00000001FF
