:100000000C9434000C9451000C9451000C94510049
:100010000C9451000C9451000C9451000C9451001C
:100020000C9451000C9451000C9451000C9451000C
:100030000C9451000C9451000C9451000C945100FC
:100040000C948A000C9451000C946F020C94E20200
:100050000C9424030C9451000C9451000C94510006
:100060000C9451000C94510011241FBECFEFD8E026
:10007000DEBFCDBF11E0A0E0B1E0E4EFFAE002C0E6
:1000800005900D92A230B107D9F722E0A2E0B1E0CD
:1000900001C01D92A733B207E1F70E9418050C9426
:1000A00078050C94000048E250E060E070E08FE0DA
:1000B00091E00C94500548E250E060E070E08FE081
:1000C00091E00C94600584B18E6384B987B18B6133
:1000D00087B98AB1886C8AB9289A88B1846288B94C
:1000E0005D9A85B5826085BDEEE6F0E08081816035
:1000F0008083E0E8F0E08081816A8083E1E8F0E0DD
:1001000080818C60808383EA8093B00086E0809356
:10011000B10008951F920F920FB60F9211242F93E2
:100120003F934F935F936F937F938F939F93AF937F
:10013000BF93EF93FF930E942B02FF91EF91BF912A
:10014000AF919F918F917F916F915F914F913F916F
:100150002F910F900FBE0F901F901895E82FF0E091
:1001600070E0EE0FFF1FE15FFE4F7183608381300F
:10017000F9F030F08230B1F1833009F447C00895CE
:10018000660F771FFB01E95EFE4F8081918190939E
:1001900089008093880020910F0130911001809197
:1001A0001101909112012462880F880F880F17C0E7
:1001B000660F771FFB01E15EFE4F80819181909376
:1001C0008B0080938A0080910F0190911001209103
:1001D000110130911201220F220F220F8462822B13
:1001E00088B90895660F771FFB01E95DFE4F808196
:1001F00091818093B30080911301909114018295B5
:10020000880F880F807C80628BB90895660F771FF6
:10021000FB01E15DFE4F808191818093B40080916C
:100220001501909116018295807F816085B90895AE
:10023000CF93DF93C0E0D0E0FE01EE0FFF1FE15F40
:10024000FE4F608171818C2F0E94AE002196C430D8
:10025000D10591F7DF91CF910895E82FF0E0EE0FEF
:10026000FF1FE15FFE4F608171816F5F63700C94CF
:10027000AE000E94A80183FF1FC080913801863024
:1002800061F0803151F08330A1F444E150E060E04E
:1002900070E08FE091E00C94B50344E150E060E041
:1002A00070E08FE091E00E94B5030E9418010C9469
:1002B0005B0081E00C947E03089580913A012091C7
:1002C000390190E0922B9093060180930501809173
:1002D0003801863021F080913801853019F481E0B1
:1002E00090E006C080913C0120913B0190E0922B70
:1002F00090930801809307010895AC018091050156
:10030000909106014817590770F08091050190916E
:1003100006012091070130910801280F391F81E063
:100320004217530708F080E00895CF93DF93EB0165
:100330000E947D01982F882339F0CE010E947D0113
:1003400091E0811101C090E0892FDF91CF91089554
:1003500080910E0108958091040108958093040115
:1003600008955A9A08955A9808956F5F40E050E0B2
:100370002FEF3FEF70E046175707B4F4FC01E40F8E
:10038000F51FE0812E27E8E0D901A170BB27369543
:100390002795AB2B21F0F1E02F27F0EA3F27E15022
:1003A00099F74F5F5F4FE7CFDC01A60FB71FEC91C6
:1003B000F0E06F5F7F4FA9015527E417F50751F46F
:1003C000FC01E60FF71F408150E0E32FFF274E1797
:1003D0005F0739F02C93FC01E60FF71F308380E0B4
:1003E000089581E00895FB01A3E0F695E795AA95AD
:1003F000E1F7E80FF91F808190E06770772702C06E
:10040000959587956A95E2F7F901B3E0F695E7953A
:10041000BA95E1F727703327E40FF51F308180FF8D
:1004200008C081E090E001C0880F2A95EAF7832B8D
:1004300008C081E090E001C0880F2A95EAF7809516
:1004400083238083089580E280930E0110920D0132
:1004500010920C01089580910E0185FF3FC080919C
:100460000C0190910D01019690930D0180930C0168
:1004700080910E0181FF27C080910C0190910D01A8
:100480000F9721F480910E01806426C080910C01A9
:1004900090910D01899711F5909137018091040198
:1004A00098130FC060910A0170910B01635087E3AC
:1004B00091E00E94B501882321F00E945D0188E04F
:1004C0000BC00C94230280910C0190910D01849734
:1004D00029F480910E01816080930E0108951F928E
:1004E0000F920FB60F9211242F933F934F935F9368
:1004F0006F937F938F939F93AF93BF93EF93FF93EC
:100500008091C60010920D0110920C0190910E0185
:1005100093FD28C090910E0194FD24C090910E018E
:1005200092FD20C090910E0191FF1CC090910E0190
:1005300090FD18C020910A0130910B012F3F310529
:1005400021F018F00E9423022CC0E0910A01F091E2
:100550000B01E95CFE4F808380910A0190910B01B1
:1005600001961BC090910E0193FD1BC090910E014E
:1005700094FD17C090910E0192FD13C090910E0151
:1005800091FD0FC090910E0190FF0BC08093370139
:1005900082E280930E0181E090E090930B018093C2
:1005A0000A01FF91EF91BF91AF919F918F917F9140
:1005B0006F915F914F913F912F910F900FBE0F90D0
:1005C0001F9018951F920F920FB60F9211242F9320
:1005D0003F938F939F93EF93FF9380910E018F7EB4
:1005E00080930E0180910E01846080930E01E09152
:1005F0000A01F0910B01E95CFE4F80818093C600F7
:1006000080910A0190910B01019690930B018093C8
:100610000A018091000120910A0130910B0190E0C4
:1006200001968217930729F48091C1008F7D8093F2
:10063000C100FF91EF919F918F913F912F910F906A
:100640000FBE0F901F9018951F920F920FB60F922A
:1006500011242F933F934F935F936F937F938F93C7
:100660009F93AF93BF93EF93FF930E94B3010E94B8
:100670002302FF91EF91BF91AF919F918F917F9155
:100680006F915F914F913F912F910F900FBE0F90FF
:100690001F9018951092C50089E18093C40082E0F4
:1006A0008093C00086E08093C20088ED8093C100F3
:1006B000529A0E94B30180E280930E01089592E065
:1006C000980F90930001682F87E391E00E94B50195
:1006D00080910E01806180930E0110920B011092A7
:1006E0000A010E94B101E1ECF0E080818062808328
:1006F00080910E01877F80930E010895E7E3F1E07A
:10070000918190689183828382E00C945F03809151
:1007100007019091080108958091050190910601CB
:100720000895DC01FB0190E0941751F02D913C916C
:10073000119730832D913D9121839F5F3296F4CFA5
:100740000895FB0150E0541779F0DC012C911196CB
:100750006C9130E0322F2227260F311D3183208308
:1007600032965F5F0296EFCF08959B01609105017D
:10077000709106016217730708F450C0E0910701F9
:10078000F09108016091050170910601420F531F1D
:100790006E0F7F1F4617570708F440C0409138017D
:1007A000433021F040913801443041F54091070138
:1007B00050910801440F551F4C3F510578F5409169
:1007C000070150910801440F4093390140910701FE
:1007D000509108016091050170910601FB01E21B37
:1007E000F30B9F01220F331F6AE371E0820F931F07
:1007F0000E949103809139018E5F45C0409138017C
:10080000403169F560913D01409107015091080127
:1008100070E0440F551F6417750720F483E00E94B1
:100820007E0335C060910A0170910B0140913D013A
:100830006950710950E06417750780F34091070112
:10084000509108016091050170910601621B730BC4
:10085000660F771F680F791F8EE391E011C04091FA
:1008600038014630A1F46091050170910601621BC8
:10087000730B660F771F680F791F41E08BE391E0E0
:100880000E94A10385E00E945F0381E0089580E05B
:100890000895EF92FF920F931F93CF93DF938C01F4
:1008A000EB0180910501909106018617970708F4E6
:1008B00076C0209107013091080180910501909147
:1008C0000601460F571F820F931F4817590708F458
:1008D00066C080913801823029F0809138018130E2
:1008E00009F04CC08091070190910801893D974023
:1008F00008F055C0809107019091080123E096957A
:1009000087952A95E1F780933901809107019091AD
:10091000080187709927892B91F0E0910701F091E8
:10092000080183E0F695E7958A95E1F7FF27E65CF5
:10093000FE4F1082809139018F5F80933901E12C45
:10094000F12C8091070190910801E816F90690F4C6
:1009500060910501709106016C1B7D0B6E0D7F1D72
:1009600097014AE351E0C8010E94F3014FEFE41AF6
:10097000F40AE7CF809139018E5F4EC08091380133
:100980008F30C1F580913D01209107013091080120
:1009900048E0849FC00111248217930720F483E06C
:1009A0000E947E033DC020910A0130910B0180918D
:1009B0003D012950310990E02817390780F3E12CD7
:1009C000F12C8091070190910801E816F90618F5BD
:1009D00020910501309106012C1B3D0B2E0D3F1D72
:1009E000A801B7018EE391E00E94F3018FEFE81AAE
:1009F000F80AE7CF80913801853091F42091050104
:100A000030910601261B370BA80160E070E08BE3F4
:100A100091E00E94F30185E00E945F0381E001C044
:100A200080E0DF91CF911F910F91FF90EF9008959B
:100A30000E9453000E946300789481E00E94AE01FE
:100A40000E944A039FE088E10FB6F894A89580932E
:100A500060000FBE909360000E941801A8950E944C
:100A60003901329B03C035990CC006C080E00E945A
:100A70002D01329BFECFF7CF81E00E942D01359BE7
:100A8000FECF4D9905C082E00E942D014D9BFECF07
:100A90001899E4CF83E00E942D01189BFECFDECF92
:100AA000DC01CB01FC01F999FECF06C0F2BDE1BD2E
:100AB000F89A319600B40D9241505040B8F708951D
:100AC000DC01CB0103C02D910E946B0541505040C9
:100AD000D0F70895262FF999FECF1FBA92BD81BD98
:100AE00020BD0FB6F894FA9AF99A0FBE01960895B0
:040AF000F894FFCFA8
:020AF4000700F9
:00000001FF
